:020000041000EA
:1000000000B5324B212058609868022188439860DF
:10001000D860186158612E4B002199600221596106
:100020000121F02299502B49196001219960352056
:1000300000F044F80222904214D00621196600F024
:1000400034F8196E01211966002018661A6600F04E
:100050002CF8196E196E196E052000F02FF8012189
:100060000842F9D1002199601B49196000215960AB
:100070001A491B48016001219960EB211966A021F2
:10008000196600F012F800219960164914480160C1
:100090000121996001BC002800D000471248134993
:1000A000086003C880F30888084703B5996A0420EC
:1000B0000142FBD001200142F8D103BD02B5186610
:1000C0001866FFF7F2FF186E186E02BD00000240BE
:1000D000000000180000070000035F00212200005C
:1000E000F4000018222000A00001001008ED00E03C
:1000F00000000000000000000000000074B24E7A12
:1001000000200420F7010010C3010010C5010010F9
:10011000C1010010C1010010C1010010C101001097
:10012000C1010010C1010010C1010010C701001081
:10013000C1010010C1010010C9010010CB01001065
:10014000CD010010CD010010CD010010CD01001037
:10015000CD010010CD010010CD010010CD01001027
:10016000CD010010CD010010CD010010CD01001017
:10017000CD010010CD010010CD010010CD01001007
:10018000CD010010CD010010CD010010CD010010F7
:10019000CD010010CD010010CD010010CD010010E7
:1001A000CD010010CD010010CD010010CD010010D7
:1001B000CD010010CD010010CD010010CD010010C7
:1001C00000BE00BE00BE00BE00BE00BE00F04BF888
:1001D000103800BEF2EB8871488500106885001069
:1001E0003402001090A31AE700202149086006C8D5
:1001F00081F3088810471F48006800282FD10DA4FC
:100200000ECC002902D000F012F8F9E71A491B4A77
:10021000002000E001C19142FCD1194988471949E9
:1002200088471949884700BEFDE701C901C29A42C3
:10023000FBD3704768850010C00000202005002017
:10024000C88900100000042000000420C8890010A4
:1002500000100420001004200000000070470B482C
:1002600002F0D0FF0047EFF30580C0B270470000F6
:1002700008ED00E0000000D0200500209C120020C6
:100280003D1700100D030010F9160010575600001E
:1002900006005250ABB36053047E0010060052506B
:1002A000861C0302147E0010060052505422A29DA8
:1002B0001C7E001005005250DE65F468C8890010ED
:1002C000F8B5C04610B5064C2378002B07D1054B76
:1002D000002B02D0044800E000BF0123237010BDB2
:1002E0002806002000000000E06F0010044B10B54D
:1002F000002B03D00349044800E000BF10BDC046F6
:10030000000000002C060020E06F001070B504F023
:1003100021F8192000F030F8D0231B068022920427
:100320005A62D02424068025AD046561054803F097
:10033000D3FFFA2000F0FEFDA561FA2000F0FAFDDF
:10034000EFE7C046E06F001010B58300084A9446FE
:1003500063441C6840226240C02414408022520141
:1003600013431C60C000034B9C466044416010BDB9
:1003700004C001400040014010B501238340D02259
:100380001206936293610521FFF7DEFF10BD0000A6
:10039000EFF3108072B6034B1B68002BFBD0BFF34A
:1003A0005F8F70472C0100D0BFF35F8F024B00229C
:1003B0001A6080F3108870472C0100D0F8B5060051
:1003C0000C001500FFF7E4FFE308F718F15C0722C3
:1003D0002240012393400B4205D1DBB20B433B701B
:1003E000FFF7E2FFF8BD2100280001F023FAF0B585
:1003F00083B00600019114001F00FFF7C9FF00E061
:100400000134BC420CD8E308F518F35C0721214005
:1004100001228A401A42F3D1D2B21A432A7001E073
:1004200001246442FFF7C0FF002C02DB200003B070
:10043000F0BD019B002BF9D0089801F0FBF90000FA
:10044000034B1B6802201840431E9841C0B27047FE
:1004500000C00640002307E0054A9A189200BFF347
:100460005F8F0021116001331F2BF5D97047C04603
:1004700040000034054A1078431CDBB21370172B80
:1004800002D9130010221A707047C04620040020C1
:1004900000B583B00100044B00931F2318220348CA
:1004A000FFF7A5FF03B000BDE46F0010A80B00200C
:1004B00070B505000C00080000F0CCFD200000F035
:1004C000B1FE0849200000F0F1FDFFF7D3FF064B15
:1004D0009C466044800068602C75A400034BE55086
:1004E00070BDC046F5070010400000344C100020DD
:1004F0000A4B1A68EFF3108172B61368002BFCD018
:10050000BFF35F8F054B1B68BFF35F8F00221A603C
:1005100081F3108840BF002000217047681200203E
:1005200010B5002922D003681B7B99421ED8174BB7
:100530009C466144090183689C4661440C68496893
:10054000002A19D003681B7B9A4215D883680F488C
:100550008446624412019A18106853680200012010
:100560008B4201D80ED00020C0B210BD084B094A02
:100570003B21094801F0C4F8054B064A3B210648D7
:1005800001F0BEF8A242EFD8EDE7C046FFFFFF0F33
:1005900048700010007300101470001010B500298E
:1005A0001ED0037B99421BD84B005B18033B0468A9
:1005B000A4466344002919D0002A1DD0914221D0BD
:1005C000002A25D0047BA24222D80468500080185B
:1005D000033820188170197800291FD11A7010BDB6
:1005E000104B114A6821114801F08AF8104B114A4A
:1005F0006F310E4801F084F80F4B0E4A70210B4802
:1006000001F07EF80D4B0B4A7121084801F078F893
:10061000044B054A6821054801F072F841701A70D0
:10062000DDE7C0467C7000106C73001098700010FD
:10063000E070001048730010EC700010F8700010AB
:1006400070B506000D001400002914D0002A14D043
:10065000806873689847002806D02200290030007F
:10066000FFF79CFF280007E02A0021003000FFF779
:1006700095FF200000E0100070BD0800FCE70000BE
:10068000F0B583B00500009201930AAB1C780BAB68
:100690001F78002C26D003685A7B944207D101238F
:1006A000002B19D1002C3BD1200003B0F0BD002C51
:1006B0000CD01A7B944209D81A6863001B19033BBB
:1006C000D3189B78002BEBD00123E9E73E4B3F4A40
:1006D00068213F4801F014F83E4B3F4A65213F48EE
:1006E00001F00EF803689C7B002CDBD012D01A7B43
:1006F00094420FD862001219033A19688C4662447A
:1007000051789973002900D1D973002393705370E5
:100710001370C7E72C4B2D4A68212D4800F0F0FFDD
:10072000002C3AD02B681B7B9C4236D82C4BE3180C
:100730001B01AA6894466344009A1A60019A5A60A1
:10074000089A9A60099ADA602E68002C2BD030D073
:10075000337B9C422DD863001B19033B32689446BF
:10076000634400229A705A701A70717B2200300024
:10077000FFF766FF7073844200D095E7287D009AEA
:10078000019B00F0DBFC061E01D0002F17D00C9B54
:10079000002B00D188E71E7086E7124B124A3B21DE
:1007A0000E4800F0ADFF114B114AA521084800F09A
:1007B000A7FF054B054A6821054800F0A1FF2868FE
:1007C000210000F01BFFE2E77C7000106C7300104A
:1007D00098700010107100107873001014700010E1
:1007E000FFFFFF0F48700010007300101070001022
:1007F0005C730010F0B5DE4657464E464546E0B500
:100800008BB00990002308938200B24BD658370072
:1008100032E0B14BB14A3F21B14800F071FFB14B1A
:10082000B14A3B21B14800F06BFFB14BB14A8C217A
:10083000AE4800F065FFB04BAE4A9021AB4800F0E7
:100840005FFFA84BAD4A4021A84800F059FF2A6835
:100850006B68099800F072FC00239A4698467B6802
:10086000BFF35F8F00221A6086F310884346002B87
:1008700051D1002800D126E100F0F8FB02000B1E48
:10088000C7DB00200021069007917868EFF31086FF
:1008900072B601680029FCD0BFF35F8F39688846C3
:1008A0004C7B002C32D0BAD0097B8C42B7D894490B
:1008B00065182D01B9688C46654428686968801AF6
:1008C00099410029C3DC01D10028C0D10021404654
:1008D00000F08AFEA042A8D12A686B6806920793AE
:1008E000AB689846EB689A464346002BA3D0002C91
:1008F000A7D03B681B7B9C42A3D8631EFA68D35CDD
:1009000008931B02184338610020A8E700239A4689
:1009100098460020A3E7089B1B02234399465146B3
:100920001800C04705000E007A68EFF3108B72B60E
:10093000136859424B41D9B2002BF9D1BFF35F8FF5
:10094000002E26DB002E52DD3B69002B53D04B4599
:1009500072D100F08BFB02000B1E73DB010018004C
:1009600052197341984202D804D1914202D901220E
:100970005242D317002B6BDB00210491013103910C
:10098000029451460191414600913800FFF778FEEC
:1009900049E03B69002BD5D04B451CD1069A079BFB
:1009A00010001900521BB341994202D804D1904261
:1009B00002D901225242D317002B12DB00210491ED
:1009C0000131039102945146019141460091380052
:1009D000FFF756FE27E04B4B464A9F21434800F065
:1009E0008FFE3D4B3D4A3F213D4800F089FE002EE1
:1009F00001D1002DA8D13A68002C45D0537B9C42F0
:100A00002CD1012100293FD1D37B002B42D1D473BB
:100A1000002C52D03B681B7B9C424ED8FA68013CAC
:100A2000135D0133135500233B617A68BFF35F8F79
:100A300013608BF310881FE7324B2E4AA2212B48FC
:100A400000F05EFE244B254A3F21254800F058FE69
:100A5000214B224A3F21224800F052FE002C0DD0AB
:100A6000137B9C420AD863001B19033B1068844621
:100A700063449B78002BC5D00121C3E7224B234A56
:100A80006821234800F03CFE224B234AF6212048EF
:100A900000F036FE002B0AD0117B8B4207D859009C
:100AA000CB18033B11688C4663445C70AFE7164B70
:100AB000164A6821164800F023FE0A4B0F4A4021CF
:100AC0000A4800F01DFE0BB0F0BCBB46B246A9467A
:100AD000A046F0BD4C10002038710010CC72001000
:100AE0005471001048700010007300101470001052
:100AF00094710010E4720010AC71001024730010A7
:100B0000FFFFFF0FB87100107C7000106C730010B5
:100B100098700010F47100103873001010B50A4B73
:100B20005B68002B04D00A21084800F09BFB10BD35
:100B3000054C2300064A1021206800F075FC0321B3
:100B40002000FFF7B5FCEEE7240400206812002027
:100B50002105001010B5064B5B68002B01D004483E
:100B600010BD044B044A5C21044800F0C9FDC04696
:100B700024040020187200100C7300101470001070
:100B8000F0B5DE4657464E464546E0B58BB080464A
:100B900016001F00149B9A46159B994616AB1B78AE
:100BA0009B461F2302AA9446634400221A7032E037
:100BB000002809D042461268127B904204D8421E97
:100BC0004146C9688A5C48E0434B444A4021444856
:100BD00000F096FD0798002B75D05B46002B72D075
:100BE0004946D04704000D0003000B4300D171E0DB
:100BF000002946DB00F03AFA06000F1E55DB3619D5
:100C00006F41B94202D804D1B04202D901267642DE
:100C1000F717002F4FDB43465A68EFF3108472B684
:100C2000136859424B41D9B20791002BF8D1BFF359
:100C30005F8F1F3302AA94466344049300230393F7
:100C400002934B4601935346009332003B004046CB
:100C5000FFF716FD031EABD1020041464968BFF302
:100C60005F8F00250D6084F31088002B29D01F238F
:100C700002A98C4663441B78002BABD112021043AF
:100C8000A9E732003B00361BAF41BB4202D804D17A
:100C9000B24202D901267642F717002FBBDA114B78
:100CA000114A3F21114800F02BFD0E4B0E4A3F2107
:100CB0000E4800F025FD0B4B0B4A3F210B4800F07E
:100CC0001FFD012040420BB0F0BCBB46B246A94616
:100CD000A046F0BD0798F6E7487000102473001096
:100CE0001470001038710010CC7200105471001094
:100CF000F8B504004268EFF3108572B613685842E5
:100D00004341D8B2002BF9D1BFF35F8FCBB2226839
:100D1000567BB3421BD10120002848D0206988426D
:100D20002BD0090AC9B2002B2ED02068007B834249
:100D30002AD8581EE668305C88422BD000206368B1
:100D4000BFF35F8F00221A6085F31088F8BD002B77
:100D50000DD0167BB3420AD85E00F618033E176822
:100D6000BC466644B678002ED6D00120D4E7134B9B
:100D7000134A6821134800F0C3FC8521124B134A23
:100D80004900134800F0BCFC124B134A40211048A4
:100D900000F0B6FC1900100000F030FC0028CED1A5
:100DA00012210E4B094AFF31094800F0A9FC2369C2
:100DB0008B42C4D100232361C1E7C0467C70001080
:100DC0006C730010987000103C720010B472001028
:100DD000147000104870001024730010607200102E
:100DE000F0B587B006000F00FFF73DFA00281FD1CD
:100DF00006246442E517A4197D41BD4202D803D1FF
:100E0000B44201D900240025002D14DB049405957B
:100E100000F02CF902000B1E13DBA41A9D41002DDB
:100E200017DC14D03000390000F02CF907B0F0BD09
:100E3000234800F0FFFC234B234A3F21234800F0C6
:100E40005FFC204B204A3F21204800F059FC002C39
:100E5000E8D0FFF77FFE0023029301931C4B009321
:100E6000049A059BFFF78CFE002818DADAE70023C6
:100E700000E00023002BD5D1164B1A68EFF3108148
:100E800072B61368002BFCD0BFF35F8F114B1B6849
:100E9000BFF35F8F00221A6081F3108820BF04998E
:100EA000059A0D4B5B6A9A42E3D80B48806A8842E8
:100EB00003D29A42DBD00123DCE70123DAE7C04604
:100EC0006472001038710010CC7200105471001060
:100ED000F10400106812002000400540F8B504003D
:100EE0000D0000F0C3F802000B1E10DB20002900EB
:100EF000801859418B4202D804D1824202D9012084
:100F00004042C117002908DBFFF76AFFF8BD064B16
:100F1000064A3F21064800F0F3FB034B034A3F21FA
:100F2000034800F0EDFBC04638710010CC72001091
:100F30005471001010B5FA2292000023002102F033
:100F4000F9FFFFF7CBFF10BD70B584B006000C00B1
:100F5000FFF700FE002302930193194B0093320028
:100F60002300FFF70DFE051E11DD20BFFFF7F2FD88
:100F70002900FFF7BDFE134B5B6A9C421BD8114A48
:100F8000926AB2421AD29C4213D0012014E00D4B57
:100F90005B6A9C4209D80B4A926AB24207D29C42D1
:100FA00001D0012008E0002006E0002004E001203C
:100FB00002E0002000E0002004B070BD0120FBE74B
:100FC000F10400100040054070B5EFF305833F20A9
:100FD00018401038EFF3108C72B6194B1B68002BB9
:100FE000FBD0BFF35F8F012319008140154A516385
:100FF000154A12781400C440234214D0114B5C6A85
:101000008300124D5B599C4206D38300104C1B5940
:101010008A430D490A7007E00A4A031D9B0099584C
:101020009950002300E00023BFF35F8F044A0021A2
:1010300011608CF31088002B00D0984770BDC0461B
:10104000280100D0004005409B12002074120020AF
:10105000980A002010B50100024A0348FFF7AEF9D4
:1010600010BDC0469073001098120020044B5B6ABC
:10107000034A906A1900536A9942F9D17047C046F1
:1010800000400540084B5B6A01E0074B5B6A8B42FE
:10109000FBD301E0044B5B6A8B4203D1024B9B6A9A
:1010A0008342F7D37047C0460040054070B5040046
:1010B0000D00EFF3108672B61B4B1B68002BFBD0A4
:1010C000BFF35F8F002D1CD0200000F051FD174BA7
:1010D00083420BD01900200000F052FD01212000B6
:1010E00000F036FD0123A340114A1360A400114B08
:1010F000E550BFF35F8F0C4B00221A6086F3108817
:1011000070BDA2000B4B0021D1500122A2400A4920
:101110000B7893430B700549200000F05BFD002124
:10112000200000F015FDE4E7280100D0C90F0010F1
:1011300038600540980A00209B120020F0B5DE467A
:1011400000B584B00400150001921E000293FFF761
:101150008DFF03958E4202D84ED185424CD9EFF3D4
:10116000108B72B6274B1B68002BFBD0BFF35F8F31
:10117000254A17780125A540EBB23B431370234B5A
:101180005D63221D92000199D150A200204902986E
:1011900050501B6A2B4212D11C4B1B6C2B4208D0A7
:1011A0000020BFF35F8F174B00221A608BF310886B
:1011B00023E0184B184AC121184800F0A1FAFFF7A4
:1011C00055FF8E4214D802D1039B834210D80E4B98
:1011D0001B78BB420ED00D4B1D625D631F20044087
:1011E0000123A3400E4A1360074B1F701E38D8E737
:1011F0000020D6E70120D4E7012004B080BCBB4624
:10120000F0BDC046280100D09B12002000400540E0
:1012100074120020B473001014740010D8730010FE
:1012200080E200E0EFF3108C72B60B4B1B68002BD2
:10123000FBD0BFF35F8F01238340084A1362084944
:101240000A789A430A70BFF35F8F034B00221A603B
:101250008CF310887047C046280100D0004005403C
:101260009B120020024B9C4661448900016070473C
:101270004000003410B50400FFF7FCF80100200026
:10128000FFF7F0FFFF232371BFF35F8F10BD10B591
:101290000400FFF7EFF801002000FFF7E3FFFF2352
:1012A000237100236371BFF35F8F10BD034B9C4616
:1012B000614489000160BFF35F8F704740000034D4
:1012C00010B504000120FFF7E3F801002000FFF74C
:1012D000EDFF10BD10B500291ED0037B99421BD82D
:1012E0004B005B18033B0468A4466344002919D0F3
:1012F000002A1DD0914221D0002A25D0047BA24291
:1013000022D804685000801803382018817019789A
:1013100000291FD11A7010BD104B114A68211148C5
:1013200000F0EEF9104B114A6F310E4800F0E8F969
:101330000F4B0E4A70210B4800F0E2F90D4B0B4A9F
:101340007121084800F0DCF9044B054A6821054882
:1013500000F0D6F941701A70DDE7C0467C700010CD
:10136000E475001098700010E0700010D075001047
:10137000EC700010F870001070B506000D0014003D
:10138000002914D0002A14D0806873689847002878
:1013900006D0220029003000FFF79CFF280007E05C
:1013A0002A0021003000FFF795FF200000E0100028
:1013B00070BD0800FCE7000010B500234373013343
:1013C0008373037BC3730123027B9A4214D9002BDE
:1013D0000CD0027B934209D85A00D218033A016814
:1013E0008C4662440133DBB25370EDE70B4B0C4A81
:1013F00068210C4800F084F9002A09D0924207D8ED
:10140000016853009A18033A8A180023537010BDDC
:10141000024B034A6821034800F072F97C70001007
:10142000E47500109870001010B50173426083607D
:10143000FFF7C2FF10BD000070B50400081E00D108
:1014400070BD002934D0237B994231D84B005B1802
:10145000033B2268944663445A78002AF0D02DD08A
:10146000237B9A422AD853009B18033B21688C4661
:1014700063445D7800215970002825D0237B984271
:1014800022D843001B18033B21688C46634400218B
:10149000597001002000FFF76FFF060029002000AF
:1014A000FFF7CAFF020031002000FFF765FFC7E722
:1014B000084B094A6821094800F022F9054B064A01
:1014C0006821064800F01CF9024B034A68210348D2
:1014D00000F016F97C700010E47500109870001090
:1014E00070B505000C001600002928D02DD0037B14
:1014F00099422AD84B005B18033B02689446634428
:101500005A78002A27D19A78002A2AD11978FFF729
:1015100093FF0300002E03D0EA7B002A27D1EC734F
:10152000002B37D1002C49D02B7B9C4246D82B680E
:1015300061000C19033C1C190023637070BD224B21
:10154000224A3821224800F0DBF8224B224A682147
:10155000224800F0D5F8224B1C4A3A211C4800F0E2
:10156000CFF8204B194A3B21194800F0C9F8002A4E
:101570000AD0297B8A4207D851008A18033A296881
:101580008C4662445470CAE7124B134A68211348D0
:1015900000F0B6F8002B0BD02A7B934208D843000A
:1015A0001B18033B2A689446634400229A70B9E7EB
:1015B000084B094A6821094800F0A2F8054B064A81
:1015C0006821064800F09CF8F4740010BC75001007
:1015D000FC7400107C700010E4750010987000100E
:1015E000307500105875001070B504000A00457B76
:1015F0002900FFF775FF6073280070BD70B5040007
:10160000002967D0437B8B420ED0002911D0037B89
:1016100099420ED84B005B18033B0268D0188378C0
:10162000002B0CD1002056E00121FFF7DDFF012047
:1016300051E0294B294A6821294800F061F8002B24
:1016400020D0227B93421DD85A00D318033B226836
:10165000D2182568EB5C8B421AD0002B1BD0227B62
:10166000934218D85A00D318033B2268D2185378F3
:101670008B4216D0002BF0D11A4B1B4A67211B4816
:1016800000F03EF8144B154A6821154800F038F870
:101690004378137007E0104B104A6821104800F09F
:1016A0002FF8437853700023837043700122200089
:1016B000FFF716FF0200617B814205D02000FFF793
:1016C0005BFE6073012006E0094B074A6D21074865
:1016D00000F016F8002070BD7C700010E47500105A
:1016E000987000107C750010A4750010FC74001038
:1016F0008475001000BEFDE710B5FFF7FBFF00008A
:1017000010B582B00C001900002A0CD0084B002A3A
:101710000BD00192009323000200064802F00EFE57
:101720000120FFF7E7FF044BF1E7034AF1E7C0466A
:10173000F075001000760010FC75001070B52B4B92
:101740002B4A1A602B4B2C4A1A602C4B9A682A4B56
:101750009343FAD12A4C01E008CC9847294B9C428C
:10176000FAD300F001F9234B274A1A60234B9B68F8
:10177000DB43DB01FAD1254B40229A675A671A678F
:10178000DA66234C09E0234B234A83212348FFF7E1
:10179000B7FF2000FFF76EFD0834214B9C4209D2B1
:1017A0002368002BF5D0012BEDD12000FFF76FFD52
:1017B0000834F2E71B4CA1681B4DC022280002F040
:1017C00079FCA560FEF74FFD002800D000BEFEF7B3
:1017D00041FE00F04BFBFFF7A1F9144C01E008CCEF
:1017E0009847134B9C42FAD370BDC04600E00040BE
:1017F000BFCDFBFE00F00040FE7F3C0000C000407B
:101800000805002018050020FFFFFF0100F001403F
:101810000005002030760010A076001050760010F1
:101820000805002000ED00E0000000201805002061
:10183000200500200FB400B583B0084802F04CFD2D
:10184000049B002B07D005A90191180002F054FD5C
:10185000034802F041FD0120FFF74CFF8C76001099
:101860009C760010F8B5DE4657464E464546E0B534
:1018700005000F0092460A9A93424ED31A0E9146E3
:101880001E020A9A00233000494601F051FD8046AD
:101890006C006419A4002F4B9C4664446368834227
:1018A00000D260602B1FDBB29B46012B3BD9C023CB
:1018B0009B012343802212011A60AB00264A9958EB
:1018C000002905D0506901F0F1FC01300138FDD14B
:1018D00053465A0123685A40E0231A4080235B0193
:1018E00023431A605A46012A28D980239B012343A7
:1018F000802212011A604346636042460023300092
:10190000494601F015FDAD00134B58510120F0BCC4
:10191000BB46B246A946A046F8BD104B104A2D2141
:101920001048FFF7EDFE012FC1D1C0239B012343D7
:1019300003221A60A368DB07FCD5C9E72168794058
:1019400003220A401A60A2680123BB401342FAD066
:10195000CBE7C04600800040AC0B0020B076001002
:1019600004770010C476001030B583B00C2000F06E
:101970001BFBFEF765FD00280DD0002304E0990055
:101980002D4A2E4888500133092BF8D92A4B2C4A6E
:101990005A6203B030BD2B4B00229A6700F076FBF1
:1019A000294B01221A60274B5B6C012BFBD1274B83
:1019B00003221A60234B9B6B012BFBD10224009462
:1019C0000533234A0121234800F05EFA00940523E1
:1019D000214A0121214800F057FA214B00930022AF
:1019E00002210420FFF73EFF1E4D00952B00002230
:1019F00001210520FFF736FF104C00942300002240
:101A000000210720FFF72EFF009423000022002171
:101A10000820FFF727FF0A4B009323000022002134
:101A20000920FFF71FFF00952B0000220021062050
:101A3000FFF718FFADE7C046AC0B0020006CDC02DE
:101A40001BB70000008000403CB0004030B00040B8
:101A5000002F68590080024000389C1C00C00240E2
:101A6000001BB70040597307074B9B68103080007C
:101A70001950BFF35F8FBFF35F8F044B00211960D4
:101A800082F310887047C04600ED00E0240100D0CA
:101A900010B5091A081F0A4B9C466144094A914235
:101AA00008D8C30706D440104005400D064B184324
:101AB00080B210BD054B064A8B210648FFF720FE79
:101AC000FC070000FE0F000000E0FFFF147700108D
:101AD000487900104477001010B5091A04394C08F1
:101AE000090B08D14905490D064A11430180064BEF
:101AF0002343438010BD054B054A93210548FFF75A
:101B0000FFFDC04600F0FFFF00F8FFFF7C770010EC
:101B10001C7900104477001001238340034A1068A9
:101B20001840431E9841C0B27047C04600E100E033
:101B3000002904D0034B1860034B18607047034B17
:101B40001860FBE780E200E000E100E080E100E0F7
:101B500010B5012383401800FFF7EAFF10BD000015
:101B600001238340014A13607047C04600E200E051
:101B7000024B9B6810308000C058704700ED00E0B9
:101B800070B504000D00EFF3108672B60C4B1B68A5
:101B9000002BFBD0BFF35F8F2000FFF7E9FF094B5D
:101BA000984201D0A84205D1320029002000FFF759
:101BB0005BFF70BD044B054A6E210548FFF7A0FD91
:101BC000240100D0CD0100108C7700106479001042
:101BD00044770010F0B5CE46474680B583B0060086
:101BE0000D00EFF3108872B6564B1B68002BFBD02C
:101BF000BFF35F8F544B9A6834001034A300D7585A
:101C0000524B9F4207D0AF4200D199E00197504B11
:101C1000FB1A2F2B09D9424639003000FFF724FF69
:101C200003B0C0BCB946B046F0BD3000FFF774FF4A
:101C3000814600213000FFF78BFFBFF35F8FFEF777
:101C400012FB002801D0844211D10123019C9C4346
:101C50000022A368AB4212D00622A256002A0DDB56
:101C600053009B189B002200394CE418F1E71E2119
:101C7000384B394AFF313948FFF742FD2200AB4269
:101C800057D106256557002D39DB6B005B199A008B
:101C90002F4B9B189A68A260DA79E27106229A5655
:101CA000A2719B795BB2002B10DABD200002A080EC
:101CB0006B005B199B00264AD318294A1178997149
:101CC000157049463000FFF743FFA4E7201D6B0065
:101CD0005B199B001E4A9B181A1D9B88D90A1C2958
:101CE00007D15B055B15023359005118FFF7D0FE91
:101CF000DDE71C4B1C4A99211848FFF701FD00281D
:101D000012D1002A0ED0FF239371184B9380144AEE
:101D10001378A371164B0E49641A644163431B0D7B
:101D20001370CEE7094FF2E7201D1249FFF7D4FEEA
:101D3000C7E75221104B084AFF310848FFF7E0FC83
:101D4000024F68E7240100D000ED00E0CD01001053
:101D50004C040020A0780010347900104477001063
:101D600099120020887800105479001000BDFFFF00
:101D7000AAAA000086040020C478001070B50400F0
:101D8000012606432D4BF31A2F2B28D8FEF76BFAAA
:101D900000282BD0EFF3108C72B6294B1B68002B58
:101DA000FBD0BFF35F8F274D22002449521A5241C6
:101DB00055432D0D6DB2244B9B6880001B58B342D8
:101DC0001BD00022032A32D853009B189B001B49CA
:101DD000CB189B795BB2AB421FD00132F2E7BB213B
:101DE0001A4B1B4A49001B48FFF78AFC7A211A4B01
:101DF000174AFF311748FFF783FC134B9B68174ABC
:101E00001A50174B1A78A2711D70BFF35F8F0C4BDD
:101E100000221A608CF3108870BD080053009918D6
:101E200089004118FF268E710E4A8A80E9E7C52194
:101E30000D4B074A49000748FFF762FC4C0400209D
:101E4000240100D0AAAA000000ED00E0CC78001028
:101E50000079001044770010F4780010CD010010D4
:101E60009912002000BDFFFF7C7500100022044B7A
:101E700002E0044902C30132072AFAD97047C0467A
:101E800000E400E080808080F0B5CE4600B504001C
:101E90000F0091461D000C2001F008FA06004301D6
:101EA0001B1A9901C91AC90009188901484601F08D
:101EB000FDF90200103A98235B009A4233D86B1E5A
:101EC000062B36D8069B013B062B32D8069B9D423B
:101ED00035D34B461A09B24237D32D04069B1E0355
:101EE00035432368002B36DB254B9C4244D08022AF
:101EF0005201244B1A60244B1A60244B9B6811003A
:101F00009943FAD12760A060231DC02292011A4391
:101F1000212313602368002BFCDAE560082313609B
:101F200080BCB946F0BD1A4B1A4A16211A48FFF771
:101F3000E7FB1A4B174A19211748FFF7E1FB184B2B
:101F4000144A1F211448FFF7DBFB164B114A2221CC
:101F50001148FFF7D5FB22683F231340BB42C3D192
:101F6000A3681B051B0D8342BED1E368EE22D2029B
:101F70001340AB42B8D1D3E780229201B9E7C04603
:101F800000C0024000E0004000F0004000C00040FF
:101F900080790010547A00109C790010D4790010D8
:101FA000207A0010387A001080239B000343014AF6
:101FB000D362704700800540024B1A68024B5A609A
:101FC0007047C046441000200080054010B5020054
:101FD000164B8020C0051860154B16481860002964
:101FE0000AD0154BE021C9041960002A09D1124B0F
:101FF000802212061A6010BD0C4BE021C904196042
:10200000F3E753019B1A9800801800010B4B1860EE
:1020100080235B04984202D3084B094A1A60FFF7F9
:10202000CBFF054B8022D2051A60E4E700B00540E3
:1020300008200140FCFF010000A0054044100020E2
:10204000FFFFFF0010B5030010000C4A8024E405D8
:102050001460002B0DD001221343094A094CD461AE
:10206000094C5C401462516293620021FFF7AEFF9D
:1020700010BD034B0022DA61F7E7C04600B005400F
:1020800000800540D3C007B02D3FF84F064BAA2271
:1020900012011A602F22DA60044B054A1A60024BC3
:1020A0005B68002BFBDA7047004002400060024092
:1020B00000B0FA00704710B5002802D00B684968DC
:1020C000984710BD0100002007E083001B185B004B
:1020D000501C08601078C01830380A681378303BFC
:1020E000DBB2092BF1D97047F0B5DE4657464E46B4
:1020F0004546E0B583B093461F000C9B9A460D9C65
:102100000E9B99460F9B9B0703D0B8460F00060015
:1021100022E00192A34688464E46B9460700B442E3
:1021200007D2551C4B4641462020B84701342A00AF
:10213000F5E73D004F465C46019B9B46B14646464F
:10214000B84637002E0007E0013C551C5346185D89
:1021500043463900B0472A00002CF5D135003E0037
:1021600047460F9B9B0707D4100003B0F0BCBB464B
:10217000B246A946A046F0BDB0464E46B9462F002D
:102180005D46531BB342EFD2541C4B4641462020C0
:10219000B8472200F5E7F0B5CE46474680B585B092
:1021A000944698460C9D0D9C0EAB1B789946109A50
:1021B000119B129EB7071CD4002B0CD0F7070AD531
:1021C0004F46002F02D10C37374204D0013B02E0CA
:1021D00030272F550134944201D21F2CF8D9F7072C
:1021E00007D59C4205D21F2C03D830272F55013428
:1021F000F5E7F70615D5770505D4002C03D09442F2
:1022000024D09C4222D00F9A102A2BD00F9A102A49
:1022100030D00F9A022A35D01F2C02D830222A55EE
:1022200001341F2C05D84A46002A31D02D222A55C8
:102230000134039602930194009543466246FFF7EA
:1022400053FF05B0C0BCB946B046F0BD621E012CBC
:1022500006D00F9F102F01D01400D4E7023CD2E724
:102260001400D0E7B206D1D41F2CCFD878222A553B
:102270000134D1E7B206CCD51F2CCAD858222A5532
:102280000134C9E71F2CC7D860322A550134C3E78F
:10229000720703D52B222A550134CAE73207C8D565
:1022A00020222A550134C4E7F0B5DE4657464E4693
:1022B0004546E0B593B081468A46089209931CAB27
:1022C00010CB1B789B461E9D219B9846002C03D16A
:1022D000102342469A4390468023DB0046461E4028
:1022E00042461A4212D0002C22D000260EE0303393
:1022F000D9B2771C0AAB99552900200000F0D6FF0F
:10230000AC4216D31F2F14D83E0004002900200031
:1023100000F0CCFFCBB2092BE9D94246920605D595
:102320004121C918C9B20A39C9B2E2E76121F8E707
:10233000270043460693209B05931F9B0493039518
:102340005B46029301970AAB0093099B089A51469A
:102350004846FFF720FF13B0F0BCBB46B246A94683
:10236000A046F0BDF0B5DE4657464E464546E0B5C0
:1023700095B0089009910A920B931E9E1F9C20AB6A
:102380001B789B46229B9946239D269B9A463300A9
:10239000234303D1103352469A4392468023DB00F5
:1023A00057461F4052461A4219D0330023432DD0BE
:1023B000002714E03033DAB27B1C98460CABDA55B8
:1023C0004A462B003000210000F0B2FFA5421FD882
:1023D00019D043461F2B1BD8474606000C004A461F
:1023E0002B003000210000F0A3FFD3B2092BE1D96C
:1023F0005246920605D54122D218D2B20A3AD2B23A
:10240000DAE76122F8E7B145E3D901E00023984615
:1024100053460693259B0593249B04934B460393B5
:102420005B460293434601930CAB00930B9B0A9AC5
:1024300009990898FFF7AFFE15B0F0BCBB46B2464D
:10244000A946A046F0BD0000F0B5DE4657464E4610
:102450004546E0B591B083468A460C9298461A9C50
:1024600008941B9D099522002B002000290001F0F3
:10247000EEF9002800D0E5E001225242D74B2000BF
:10248000290001F0DFF9002800D0DBE001225242F0
:10249000D34B2000290001F0BFF9002800D0D1E083
:1024A00000220023089E3000099D290001F0B4F9A4
:1024B000002800D0DDE00898099906900791802354
:1024C000DB001E9A1A400D921E9A1A4201D1062371
:1024D0001C930698079904000D000A0006000243A9
:1024E00000D1D1E0080D4005400DBE4CA44660442B
:1024F0000A03120BBC4B13431F0001F0BBF9BB4A8C
:10250000BB4B01F046F9BB4ABB4B01F01BF9040081
:102510000D000022B94B3000390001F00AF9B84A29
:10252000B84B01F036F902000B002000290001F041
:1025300009F901F0B7F9814601F09CF904000D009A
:10254000B14AB24B01F025F90022B14B01F0FAF883
:1025500001F0A8F90600AF4AAF4B2000290001F0B6
:1025600018F904000D00300001F084F9AB4AAC4BBF
:1025700001F00FF902000B002000290001F0D9F84A
:1025800004000D0002000B0001F003F90A900B910A
:10259000A44BF31800261F0522002B002000290061
:1025A00001F0D0F80E900F9122002B000020802126
:1025B000C90501F0BEF804000D0000229A4B0A98EC
:1025C0000B9901F0C8F80022984B01F0BBF802000B
:1025D0000B000A980B9901F0BEF80022944B01F011
:1025E000B1F802000B000A980B9901F0B4F8020050
:1025F0000B002000290001F0A5F802000B000E9846
:102600000F9901F0A8F80022774B01F09BF83200F7
:102610003B0001F0BEF806000F0004000D00069A12
:10262000079B01F00FF9002830D001235B429C4644
:10263000E14400227D4B3000390001F08CF80400A9
:102640000D0023E01E9B04931D9B03931C9B029390
:10265000089A099B0092019343460C9A51465846AA
:1026600000F0FCF811B0F0BCBB46B246A946A0464B
:10267000F0BD0023002406930794069680231B06D2
:102680009C46654407951AE7002399464B466333F9
:10269000C62B1ED804261E9B1B0526D52B002343C4
:1026A0000FD0644A644B0698079901F0C3F80028DC
:1026B00079D00022614B0698079901F0ADF8002807
:1026C00071D01C9B4B4506DD4A46981A431E1C934D
:1026D00003E00526DFE700231C938023DB001E9A1E
:1026E0001A431E920026002399461D9B9E4264D2E7
:1026F0009F1B02231E9A1A400A921E9A134202D06E
:10270000002E00D000274B46002B07D022002B00C4
:102710000698079901F01FF8069007910022002300
:102720000898099901F078F8002848D1444B1E9A7E
:102730001340049303971C9B0293069B079C0093F2
:10274000019443460C9A5146584600F087F8002EF3
:1027500000D187E71E9B9B063DD54525441C43467B
:10276000020051462800D8474B46DA179B185340C1
:1027700005220592013E0496002203920A3202923B
:102780004A46D00F019000934346220051465846D6
:10279000FFF78AFD0A9B002B00D163E702005F462A
:1027A0000C9E1D9D54E01C9B002B9ED00D9B002B6E
:1027B0009BD01C9B013B1C9397E7002799E7069C45
:1027C000079D2200290080200006844661440B00FA
:1027D00006920793AAE76525C0E7C046FFFFEF7F93
:1027E000FFFFEFFF01FCFFFF0000F03FFB799F5070
:1027F0001344D33FB3C8608B288AC63F0000F83F1C
:1028000061436F63A787D23F71A379094F930A4051
:102810000000E03F1655B5BBB16B0240EF39FAFE40
:10282000422EE63FFF03000000002C400000244041
:10283000000018402D431CEBE2361A3F80842E41E5
:10284000FFF7FFFF541C434651462020B8472200A3
:10285000931BAB42F6D3100004E7C046F0B5DE464A
:1028600057464E464546E0B595B0069007919346CB
:102870009946209F1E9A1F9B1000190000F0E7FF49
:10288000002831D101225242BF4B1E981F9900F0FF
:10289000C3FF002837D101225242BC4B1E981F991A
:1028A00000F0D0FF00283DD10022B94B1E981F999F
:1028B00000F0C8FF002850D10022B64B1E981F9987
:1028C00000F0AAFF002848D1002200231E981F997B
:1028D00000F0A2FF002850D100239846229B5B0500
:1028E00000D4B6E0002458E0229B0393219B02937E
:1028F00003230193A84B00934B465A460799069829
:10290000FFF7F2FB0EE1229B0393219B029304232A
:102910000193A24B00934B465A4607990698FFF73E
:10292000E3FBFFE00423229A1A4022990B4210D0C5
:102930009B4B002A0FD004222299039121990291E6
:10294000019200934B465A4607990698FFF7CCFB35
:10295000E8E0944BEDE70322EEE7229B0493219BF2
:10296000039302971E9B1F9C009301944B465A466B
:1029700007990698FFF768FDD4E01E9A1F9B002078
:10298000002100F0D6FE1E901F9101239846A5E776
:102990000CAB30221A55013F01341F2C01D8092FEE
:1029A000F6D81E981F9900F07DFF050000F062FF29
:1029B00002000B001E981F9900F0BBFEFA007A4B34
:1029C0009B181A685B680A920B9300F0E2FE08906D
:1029D000099100F08BFF060000F048FF02000B0099
:1029E0000898099900F0A5FE0890099100226F4B04
:1029F00000F028FF00282ED00136300000F036FF0E
:102A000002000B000A980B9900F00CFF002801D07F
:102A100001350026002F2CD1280000F02BFF0200EA
:102A20000B001E981F9900F084FE06000F00002284
:102A30005E4B00F0F1FE002846D100225B4B3000D7
:102A4000390000F0FFFE00283ED1EB073CD50135F0
:102A50003AE0062746E70022544B0898099900F00F
:102A6000DBFE0028D6D1002E01D0F307D2D50136E7
:102A7000D0E7AA461F2C11D8013F0A21300000F0F0
:102A800015FC651C30310CAB19550A21300000F0E3
:102A90000DFC092E0ED906002C00EBE755461F2C25
:102AA0000CD87B1E002F09D00CAA302111551F0015
:102AB0000134F4E72B0055461C00F0E71F2C03D827
:102AC0000CAB2E221A5501341F2C10D80A212800D5
:102AD00000F0C4FB661C30310CAB19550A212800EC
:102AE00000F0BCFB051E01D03400EDE734000323E9
:102AF000229A1340012B1CD01F2C06D84346002BD2
:102B000032D00CAB2D221A550134229B0393219B0A
:102B1000029301940CAB00934B465A4607990698D2
:102B2000FFF7E2FA15B0F0BCBB46B246A946A04694
:102B3000F0BD219B002B13D04346002B02D10C3358
:102B400013420FD0219B013B2193190003E00CABF2
:102B500030221A5501348C42CED21F2CF7D9CBE744
:102B60002199F8E72199F6E7229B5B0704D50CAB86
:102B70002B221A550134C8E7229B1B07C5D50CAB85
:102B800020221A550134C0E7FFFFEFFFFFFFEF7F60
:102B900065CDCD4165CDCDC16C7A0010707A001045
:102BA000647A0010607A0010587C00100000E03F4A
:102BB000F0B5DE4657464E464546E0B593B08246F0
:102BC0008B4690461193002900D1EBE20027554631
:102BD000119B1878002800D1E7E2252809D07C1C39
:102BE00043463A005946A847119B013311932700E9
:102BF000EEE7013311930024119A11780B00203B6A
:102C0000D8B2102803D88300D048C3589F460B0081
:102C1000303BDBB2092B2CD92A292FD000230A9371
:102C2000119B1A782E2A39D000239A46119A1378CC
:102C3000683BD9B2122976D88B00C549CB589F463C
:102C400001231C4301321192D6E702231C430132B7
:102C50001192D1E704231C4301321192CCE70823DF
:102C60001C4301321192C7E710231C430132119219
:102C7000C2E711A8FFF726FA0A90D1E71C9B1A1D9C
:102C80001C921868002804DB0A90119B01331193F1
:102C9000C6E702231C4343420A93F6E78022D20090
:102CA00014435A1C11925A781300303BDBB2092BA3
:102CB00004D92A2A07D000239A46B7E711A8FFF7BC
:102CC00001FA8246B2E71C9B1A1D1C921868002864
:102CD00004DB8246119B01331193A7E70020F8E73C
:102CE00080235B002343511C119152786C2A01D040
:102CF0001C0018E0C0239B001C430131119112E01D
:102D000080232343511C11915278682A01D01C0062
:102D100009E0C0231C430131119104E080235B00D2
:102D20001C4301321192119B18780300253BDAB243
:102D3000532A00D92CE29300864AD3589F46802319
:102D40009B001C4301321192EDE780235B001C4382
:102D500001321192E7E7782809D0582838D06F2837
:102D600038D0622838D010239C430A2600E0102671
:102D7000582833D0692803D0642801D00C2294430A
:102D8000630501D50122944369282AD0642828D0FC
:102D9000A30500D59FE0E30500D5B8E0630600D4A5
:102DA000CAE01C9A111D1C911168FF220A4005946B
:102DB0000A9B0493534603930296002301930092C7
:102DC00043463A0059462800FFF76EFA070027E00D
:102DD0001026CDE70826CBE70226C9E720221443B8
:102DE000C8E7A30520D4E30550D4630666D51C9A32
:102DF000111D1C911168FF220A40D317D1185940A8
:102E000005940A9B0493534603930296D20F0192B2
:102E1000009143463A0059462800FFF745FA07005B
:102E2000119B01331193D3E61C9BDA1D07218A43C2
:102E3000110008311C91116853689C46DB170C93F4
:102E40000D930C9A0D9B100048400E906246534023
:102E50000F930E980F990C9A0D9B801A99410E9022
:102E60000F9108940A9B07935346069304960023F8
:102E700005936346DA0F02920090019143463A00AF
:102E800059462800FFF76EFA0700C9E71C9A111D82
:102E90001C911268D317D118594005940A9B0493CA
:102EA000534603930296D20F0192009143463A0093
:102EB00059462800FFF7F8F90700B1E7230605D5C2
:102EC0001C9A111D1C910023D25E96E71C9A111DBD
:102ED0001C91126891E71C9BDA1D07218A4311009F
:102EE00008311C9108940A9B079353460693049655
:102EF000002305930293136854680093019443469A
:102F00003A0059462800FFF72DFA070088E71C9A77
:102F1000111D1C9105940A9B04935346039302963A
:102F2000002301931368009343463A005946280052
:102F3000FFF7BAF9070073E723060DD51C9A111D98
:102F40001C9112681204120C31E7C046787A001006
:102F5000BC7A0010087B00101C9A111D1C9112688D
:102F600025E746281AD01C9B0733072293431A00F3
:102F700008321C9204940A9A0392524602925C68A8
:102F80001B680093019443463A0059462800FFF716
:102F900065FC0700119B0133119319E620231C43A4
:102FA000E1E7672801D0472802D180231B011C4399
:102FB000452801D0472801D120231C431C9B0733FF
:102FC000072293431A0008321C9204940A9A03922F
:102FD000524602925C681B680093019443463A0093
:102FE00059462800FFF730FA0700119B013311936F
:102FF000EEE502231A002240924623421FD001240C
:103000001C9B1A1D1C927A1C9146187843463A0064
:103010005946A8475346002B16D1119B01331193F3
:103020004F46D5E5561C434659462020B847230055
:1030300032005C1C9D42F5D83D001700E0E70123FB
:103040003A002F000A9DF4E74A46A9460A9D06E089
:10305000571C434659462020C84734003A00661C96
:10306000A542F5D84D469146D7E71C9B1A1D1C92E8
:103070001B6899465346002B00D1013B4E4601E0A8
:10308000013613003278002A02D05A1E002BF7D1E5
:103090004B46F21A10928023DB0026001E401C4291
:1030A00003D0524501D95346109302231A002240FF
:1030B0000B92234205D03A0037004C46A9465546AC
:1030C00020E03A00109B5F46B3462E0006E0551CF8
:1030D000434639002020B04723002A005C1C0A998F
:1030E0009942F4D835005E46BB46109437004C46F2
:1030F000A946554606E01D000134561C4346594674
:10310000C84732002078002804D0002FF4D06B1E6E
:10311000002DF0D117004D460B9B002B03D1119BC6
:103120000133119354E50A9F109B06E0561C434659
:1031300059462020A847230032005C1C9F42F5D846
:103140001700ECE721231C431C9B1A1D1C921B68D3
:10315000009305940823049353460393102302938A
:103160000023019343463A0059462800FFF79CF894
:103170000700119B013311932AE57C1C43463A005A
:1031800059462520A847119B0133119327001FE5BD
:103190007C1C43463A005946A847119B01331193C2
:1031A000270015E50A4B9A4610E5AA46474502D383
:1031B00043465A1E00E03A00434659460020D04795
:1031C000380013B0F0BCBB46B246A946A046F0BDDD
:1031D000B520001000B585B0029003910121009345
:1031E00013004A4202A90248FFF7E2FC05B000BD05
:1031F000B720001001480421014B1847A00400200B
:103200002532001010B5010018231B8814221088E5
:10321000984710BD10B5010018231B88162210888E
:10322000984710BDF0B5C64600B507000E00002552
:103230000123984600E00135B5420AD2AC003C19A2
:103240002068FFF7DFFF20600028F4D100239846B4
:10325000F1E7404680BCB846F0BD0000124A936FCB
:103260009B0815D29066D166002905D0FFE7FFE7DD
:10327000FFE7516F106F704704B580210906C21730
:103280005140002800D0C84303F08AFE002104BD4D
:10329000F0B5146E556E576F166FFFF7E3FF1466A7
:1032A000556657671667F0BD000000D0114A936F4E
:1032B0009B0813D210665166002905D0FFE7FFE78F
:1032C000FFE7516F106F704704B5002801D0002050
:1032D000C04303F065FE002104BDC046F0B5146E86
:1032E000556E576F166FFFF7E5FF14665566576703
:1032F0001667F0BD000000D094464E4A926F9208C7
:10330000624601D230E0C046F0B54A4EB56F6D0856
:10331000FCD3346E756E776F366F00F025F89446E7
:10332000444A14665566576716676246F0BDC04644
:103330009446404A926F9208624601D258E0C046D5
:10334000F0B53C4EB56F6D08FCD3346E756E776F7B
:10335000366F00F04DF89446364A14665566576746
:1033600016676246F0BDC046002B24DB11D0002951
:103370003EDA00B5C943404200D1013100F038F8CF
:10338000C943404200D10131DB43524200D10133F5
:1033900000BD002AEBD1002801D1002905D0002072
:1033A000C90FC90701D1C043410800B503F0F0FDC2
:1033B0000022002300BD00B500290ADBDB43524296
:1033C00000D1013300F014F8C943404200D101316B
:1033D00000BDC943404200D10131DB43524200D11C
:1033E000013300F005F8DB43524200D1013300BD48
:1033F000002923D1002B18D1002A0CD0BC460D4F38
:1034000038667A6600210023FFE7FFE7FFE77A6F5F
:10341000386F67467047002801D00748010000B5A3
:1034200003F0B6FD0022002300BD02000B000020C7
:1034300000217047000000D0FFFFFFFF002B00D0ED
:10344000BFE0130C28D1002AE7D080B4114F3966B1
:103450007A66FFE7FFE730B4040C7B6F396F1B041B
:1034600023433B667A66FFE7FFE7FFE7C04684B287
:103470007B6F3D6F1B0423433B667A66FFE7FFE7E4
:10348000C04600232C042D0C7A6F386F0019694157
:10349000B0BC7047000000D0F0B594460025140E73
:1034A00001D112020835140F01D112010435940F15
:1034B00001D192000235D40F01D152000135D40B55
:1034C0000134254F7C66254C3C660E0C93B2FFE719
:1034D000FFE7FFE73C6F6643360C7703BE46734356
:1034E000DF0B5B04C01AB941130C7343DB18C91A14
:1034F000CE086643360CB64493B273431F0F1B01CC
:10350000C01AB941130C73431F0B1B05C01AB941F4
:10351000860D8F023E436643360C092D24DB520A8A
:103520007243801A7703460A6643360C16235B1BE8
:10353000DE40DF40BF1964466643821B7046043597
:1035400006330100D940A840C01900D30131A2427E
:1035500006D20023F0BD0000000000D0FFFFFFFFF7
:10356000121B0130F3D3F1E709277F1BFE406446AD
:10357000A2B27243801A00D20139220C7243130C9A
:103580001204821A99410B0070460435133701006A
:10359000F940A840801900D30131002B02D1A2428A
:1035A0000AD2F0BD013000D30131121BFAD2013B27
:1035B000F8D1A24200D2F0BD013000D30131121B7C
:1035C000F7E7F0B51C0C00D080E00CB400251C0A15
:1035D00004D11B02160E3343120208351C0B04D112
:1035E0001B01160F3343120104359C0B04D19B00C1
:1035F000960F334392000235DC0B02D192185B41E7
:1036000001351C00971864410134464F7C66464CD6
:103610003C660E0CFFE7FFE7FFE7C0463C6F6643E2
:10362000360C7703BE4697B27743C01B00D20139F0
:10363000C01B00D201399FB27743C91BC91B170CAD
:1036400077437E04FF0B801BB941CE086643360CDE
:103650000C2D33DBB644120B1F053A431B0B97B2FC
:103660007743C01B00D201399FB27743C91B170CA7
:1036700077433E043F0C801BB941860D8F023E43C9
:10368000664329277F1BFE400C3D7746AF40BF199C
:1036900030BCA2B2ABB272437343801A9941220C80
:1036A0007243130C1204801A994102000B00013777
:1036B000001BA941F9D2781E0021F0BD0C277F1B09
:1036C000FE4077467F0BAF40FF19E0E700245D1C0A
:1036D00007D0144F7D663966FFE7FFE7FFE7FFE796
:1036E0003C6F95B29EB265436643401BB141150CD9
:1036F0001E0C6543664336042F0C3E432D04401BCD
:10370000B141994204D202000B0020000021F0BD1B
:1037100001D19042F7D3801A994101349942F2D3F2
:10372000F6E70000000000D0FFFFFFFF48404140E7
:10373000484018B41B4B5B68FC46019308BD04DF8E
:10374000073A001018B4174B1B68FC46019308BDDC
:1037500000DF113A00109446134A926F920809D282
:10376000624618B40F4BDB68FC46019308BD0CDFC2
:10377000C93C00100C4AF0B5146E556E576F166FA9
:103780006246FFF7EEFF084A1466556657671667EC
:10379000F0BD18B4034B9B68FC46019308BD08DFDD
:1037A0006D3B001064100020000000D0FFB55040B9
:1037B0004240504059404B40594000E0FFB5154F42
:1037C0004C00640D03D0BC4204D10C0314D800207B
:1037D000090D09055C00640D03D0BC4204D11C0333
:1037E0000AD800221B0D1B0501264B4009D44B4073
:1037F00003D58B4200D18242FFBD9942FCD1904259
:10380000FFBD0B43DB1803431343F5D0C9434918ED
:10381000FFBD0000FF07000000B5FFF7CFFF8041AC
:1038200000BDC04600B5FFF7C9FF01D9002000BDAB
:10383000012000BD00B5FFF7B9FF01D9002000BD90
:10384000012000BD00B5FFF7B1FF804100BD0120A0
:1038500040054A00121804D85A00121801D8002056
:1038600070470120704700207047000000210028A9
:1038700005D17047C1174840401AFAD0C90713B59F
:10388000064B1B6898470CBC441CA2401005120B49
:103890000349091B09051943114310BD6411002098
:1038A0001F04000010B54C00620D8023D218DB000D
:1038B000D21A5B057E2A10DD9E3A13DACC17090373
:1038C000490819435242D140640001341532202A7C
:1038D00005DAD0400843604310BD002010BD084603
:1038E000604310BDC80FC018013810BD18B4044B98
:1038F0005B6AFC46019308BD24DF793E001000009E
:103900006410002070B513231C78012C14D0012CF6
:1039100014DC022C02DC1F4A1F4B9A641F48FFF77D
:1039200071FC1F4B186070BD99001A481A4A8850E4
:1039300001331F2BF8D9EAE70023FAE71948FFF70C
:1039400069FC05001848FFF765FC023803789B0006
:103950007F2B19DD802229000F4800F0ABFB022CE1
:10396000D7D1124B1A88B5231B029A4209D1104BAA
:103970001A88104B9A4204D10F4B1A880F4B9A4267
:10398000C7D00020FDF756FF0D4B0E4A32210E48DE
:10399000FDF7B6FECD390010641000204C33000056
:1039A00064110020534400005346000054380000C6
:1039B000D8380000494600009C38000059460000F5
:1039C000A87C00104C7D0010087D001007B56046F3
:1039D000002800D100BE01880A0A0230DF2AFAD18D
:1039E000C9B2820804D3028840880004104300E072
:1039F0000068024A5050039007BD00006410002088
:103A00000FB403BC0CBCF0B50124E407634000E034
:103A1000F0B50C0DCF0F661E3605891B640503D368
:103A2000C943404200D30131640D03D0661CF60A3D
:103A300007D0E41B00207F00791C89078912803C95
:103A400024031D0DDF0F6E1E36059B1B6D0503D372
:103A5000DB43524200D301336D0D03D06E1CF60AD6
:103A600007D0ED1B00227F007B1C9B079B12803D33
:103A70002D032F1B661B58D4A446202E46DA203770
:103A80001400BC401D00BD40F24033412A43801861
:103A90005941CB0F05D0C943C04300226442504175
:103AA000514162464D0D28D10D0D07D100281FD080
:103AB000241940414941013A0D0DF9D0640006D363
:103AC000013000D30131002C01D140084000013AFF
:103AD0000BD4941CE40A04D112051144DB071944E9
:103AE000F0BDD907204B194300E0D9070020F0BDF5
:103AF0000029DDD1002CDBD1F0BD0132C607400822
:103B0000CD0728434908002EE1D0D9E73C2E29DA19
:103B1000203E40371400BC4000D00124F240144342
:103B20001A00BB401C43D317ACE7AC46202F08DA81
:103B300020360400B4400D00B540F8403941284318
:103B4000A5E73C2F0CDA203F40360400B44000D0FB
:103B50000124F84004430800B1400C43C117EAE7D0
:103B600010001900002494E70000F07FF0B50C0D60
:103B7000661E3605891BE60A6405640D02D0651CC5
:103B8000ED0A04D0002001210905803C2403A4464D
:103B90001C0D671E3F05DB1BE70A6405640D02D0A0
:103BA000651CED0A04D0002201231B05803C240380
:103BB0007740644497B484B296B27443070C7E4352
:103BC000150C6F4380B26843361802D301200004FD
:103BD0003F183004350C00197D41844688B29AB2F2
:103BE00050430C0C62431F0C7C438EB27E439219EF
:103BF00002D301263604A4191604170C361867419F
:103C000001BC81B29AB25143040C62431B0C5C4369
:103C100080B25843121802D3012000042418100463
:103C2000130C401863412D185E410020474106BC2B
:103C300088B293B258430C0C6343120C544389B2BC
:103C400051435B1802D301210904641819041A0CAA
:103C5000091862416D1856410020474118BCF9020D
:103C6000720D1143F0026A0D1043ED020A0D03D1EB
:103C70006D1940414941013B124E9B1B7600B342F6
:103C80000ED26D0007D301300026714166463543E0
:103C900001D1400840001B05C918E4072144F0BDCC
:103CA0000BDA013306D1013004D101314F0D01D0BF
:103CB0004908F2E7E1070020F0BD01363105002098
:103CC000EBE70000FF030000F0B51C0D671E3F0589
:103CD000DB1BE70A6405640D02D0661CF60A04D0FB
:103CE000002201231B05803C2403D0252D0600263D
:103CF000F6432E661E096E66CE0FF619B4464900CD
:103D00004F0D02D07E1CF60A03D000200021403F58
:103D10003F033E1BB600B444013F7F05C91B490861
:103D20002E6F013676089C02950D25437543ED13E1
:103D30007543AD1301356D10F603761B0CB4CC0240
:103D4000450D2C43A2B2B3B25A43270C7B43350C2A
:103D50006F43A4B26C431B1902D3012424043F19FE
:103D60001C041D0CA4187D4124196D41009A91B2C8
:103D7000ACB26143170C7C432B0C5F4392B25A43A5
:103D8000A41802D301221204BF182204230C5218D3
:103D90007B41019C6C431B19520ED9010A4344011B
:103DA000A01A81B2B2B2514303145A43360C734382
:103DB00087B27743D617D21900277E4136049B1964
:103DC0001704160C7F185E417316ED18F3010026D8
:103DD00080337541A90F06D16400690AE8055B0AC2
:103DE000184309D22FE00422944480337541A90A74
:103DF000A8059B0A184326D3404149412404009A50
:103E0000019B0D005543641B4343E41A95B286B2EF
:103E10007543170C7E43030C5F4392B25A43B618A6
:103E200002D301221204BF183204330C52197B4111
:103E300052429C41002C02D40022013051414008E2
:103E4000CA071043490802B06246D7079210084BD0
:103E5000D218084B9A4203D212058918C919F0BD2D
:103E60000020002A01DC3900F0BD01331905F5E717
:103E7000FD030000FE070000002200B5203200F024
:103E800004F8080000BD000000220B150AD410B58C
:103E9000944600F031F81414013400DA0021CB17F5
:103EA000144C20470020002170476244343A0CD45F
:103EB0000C2A07DA04009140904052422032D4404C
:103EC000214310BDD843D94310BD203207D40C463E
:103ED0009440524220321141D040204310BD08008E
:103EE000C917203203D452422032104110BD1800AD
:103EF000190010BDAB3E00100A0DCC0F531E1B0560
:103F0000C91A520503D3C943404200D30131520DAF
:103F100003D0531CDB0A07D0121B00206400611C75
:103F200089078912803A1203014BD21A70470000A8
:103F3000FF03000051434343C9188C46110C83B260
:103F40004B4310B4040C614392B280B250436243BD
:103F50001C041B0C001910BC59411304120CC0188E
:103F6000514161447047000070B513231D782A4801
:103F7000FFF750F90400012D11D0012D09DDA31E1A
:103F80001B789B007F2B40DD80222100234800F01E
:103F900091F82348FFF736F9224B186070BD542280
:103FA00001001E4800F086F81F4B1A881F4B9A42EA
:103FB0001CD1A7239B011A881D4B9A4216D11D4B79
:103FC0001A881D4B9A4211D11C4B1A8894239B01CD
:103FD0009A420BD11A4B1A881A4B9A4206D11A4BA5
:103FE0001A681A4B9A4201D1152307E01848FDF7C9
:103FF00021FC99001748094A885001331F2BF8D932
:10400000144A064B1A62DA61B7E7134B134A42218E
:104010001348FDF775FBC0465346000068110020A9
:104020004C33000064110020EE290000C40F000092
:10403000C20D0000962B0000C0B50000182B000038
:10404000CC2A000010B50000FC2C000051ED876464
:10405000FC75001065400010607D0010D87D0010D8
:10406000947D001007B56046002800D100BE01888D
:104070000A0A0230DF2AFAD1C9B2820804D30288C0
:1040800040880004104300E00068024A505003904A
:1040900007BD00006811002001480421014B1847AA
:1040A000B004002025320010014B1B6818470000A7
:1040B000B0040020014B5B6818470000B0040020EA
:1040C00010B50300080011001B68984710BD0000E0
:1040D000F8B507000D001600437C002B02D0002429
:1040E00000200CE003681100280098472DE03B7C7D
:1040F00010E0022115483B689847601C0134B44227
:1041000014DA002CF3DD2B19013B1B780D3B5A42CE
:104110005341DBB22A5D0A2AF0D1002BEED1A04236
:10412000E7DA211A28183B689847E2E7B04203DA39
:10413000311A28183B689847002E06DDAD19013D5D
:104140002B780D3B5A4253413B74F8BD4C7E001016
:1041500070B505000368002B16D00C4B1C6805E0F9
:10416000290004C92000FFF7B3FFE468002C09D040
:104170002368002BF9D0064B1B68002BF0D0A3421C
:10418000F3D1EDE700232B6070BDC0463C0C00204E
:10419000400C002070B505000C000B68802B05D08A
:1041A00021684B1C23606418257170BD0800FFF75F
:1041B000CFFFF5E710B582B0D0231B0600241C57B3
:1041C00001A9074802F0F4FE002806D1019B9C4299
:1041D00003D0034802F0FCFE012002B010BDC0462F
:1041E0000005002010B5024802F0CAFE10BDC0460E
:1041F00000050020F0B5CE46474680B583B00600E6
:104200000D0090461C00FFF7D5FF81466B1C05D0C2
:10421000002C08D0194F1A4B1C6807E0300002F040
:1042200077FE0500F4E7174FF5E7E468002C17D098
:104230002368002BF9D0144B1B68002B01D0A3423C
:10424000F3D12A0031002000B8474346002BECD0C0
:104250006B46D91D0A230B7001222000B847E4E702
:104260004B46002B07D16B1E9D41E8B203B0C0BC8A
:10427000B946B046F0BDFFF7B5FFF4E7C140001006
:104280003C0C0020D1400010400C0020094A01E005
:104290000C331A001368002B08D08342F8D1002990
:1042A00007D1C36813600023C36002E0002900D077
:1042B000106070473C0C002010B5064B1C6801E0F4
:1042C0009847E468002C03D06368002BF8D1F8E726
:1042D00010BDC0463C0C002070B5050002F018FE71
:1042E00004000023012201002800FFF783FFFFF7ED
:1042F000E3FF200070BD000070B5A2B004000E0006
:10430000FFF758FF05008422002101A8FFF7CCFE2B
:104310003300220001A90848FEF75CFF040001A851
:10432000FFF716FFFFF7C8FF002D02D1200022B0D3
:1043300070BDFFF757FFF9E7954100100FB400B5C6
:1043400083B004A901C90191FFF7D6FF03B008BCEF
:1043500004B0184710B500F033F910BD70470000E5
:10436000014B00221A7070479A1200204B79FF2BE4
:104370000CD18B79002B0BD1CB79012B0AD1082AD8
:104380000AD98A78054B1A70092000E0002070478E
:104390000020FCE70020FAE70020F8E79A1200204E
:1043A0000120704770B504000D000348FEF72AFF96
:1043B00003002900200098475542000010B500294D
:1043C00026D1117953791B020B43124909788B428C
:1043D00001D0002010BD5378012B03D0022B10D048
:1043E0000020F7E79178D3781B021943DB0503D54A
:1043F0004B0A0120984000E000207F231940FFF77E
:10440000D1FF642200210020FDF71CFE0120E1E71E
:104410000120DFE79A120020012303700048704753
:10442000507E001010B50B784878000218438A7847
:1044300012041043CB781B0603439622D20093420A
:1044400000D010BD00210800FFF7ACFF30B583B0ED
:1044500005000C0001A9184802F0AAFD002808D1A7
:10446000D0231B061B68019A9A4221D0124802F001
:10447000AFFD002001F01AFE002807D1032464429A
:104480000D4802F07DFD200003B030BD002001F09A
:104490002FFE002802D103246442F1E72200290004
:1044A000002001F031FE041EEAD103246442E7E754
:1044B00003246442E7E7C0466C12002010B50021D7
:1044C000054802F075FD002800D110BD01F086FB03
:1044D000014802F055FDF8E76C120020F0B5C64621
:1044E00000B582B080460D0001A92E4802F060FDA3
:1044F000002808D1D0231B061B68019A9A420FD0CE
:10450000284802F065FD002001F0D0FD002847D1C9
:10451000254B0020002118605960224802F030FD30
:1045200002B080BCB846F0BD01F058FB002001F09D
:10453000FFFD002001F0BAFD0028EED0002001F0C0
:1045400079FE00281DD0AC42E7DA2E1B002001F0D6
:1045500071FE0200864200DC3200002AE4D04346AD
:104560001919002001F04AFE060001F037FB002077
:1045700001F0DEFDA419FCF779FD0B4B18605960C2
:10458000E1E7FCF773FD084B1E685F68074A0023EC
:1045900092197B419942C0D8D5D19042D3D9BCE77A
:1045A0000024D0E76C1200202006002020A1070084
:1045B00010B51F20FDF7D4FAFA208000002110BDAD
:1045C00070B584B0244B1B7802F07AF823491F2081
:1045D000FDF7D6FA01211F20FDF7BAFA2048FCF7B3
:1045E00049FEFCF7B7FA0600FCF740FD04000D1E7B
:1045F00020DBFA229200002312196B41994202D863
:1046000004D1904202D901225242D317002B17DB6A
:104610000121029100210191124900913000FCF723
:10462000AFFA0400631E9C41E4B200280ED12000C2
:1046300004B070BD0C4B0D4A3F210D48FDF760F8EA
:10464000094B0A4A3F210A48FDF75AF80121094857
:10465000FFF71CFEEBE7C04664850010BD44001068
:104660006C120020B145001038710010887E0010D7
:1046700054710010C004002000487047207F0010D3
:1046800000487047CC7E001010B50400154B1B7815
:10469000002B0ED0002C11D1134B144A5A80012349
:1046A00001335B001BB2C022920013430E4803800B
:1046B00010BD11210B4802F0D7FBEBE7052C0ED8FB
:1046C000A4000B4BE4580023122BE9D8E25C002A2B
:1046D000E6D00133590004484252DBB2F4E700202F
:1046E000E6E7C04684120020140C002009040000F4
:1046F000347F001002007F201040D2094000801853
:104700004001014BC0187047440C002010B582B026
:1047100001AB074A1A80002406E001AB185DFFF7E1
:10472000E9FF0123C3700134012CF6D902B010BD9A
:104730000080FFFF10B5838B3F333F229343022954
:1047400015D0124C2268C260D31823609C0610D189
:104750000F4C6240634080246401A3420FD8890655
:10476000114380231B0619434368196010BD5B0089
:10477000E7E7084B084A54210848FCF7C1FF084BFB
:10478000054A56210548FCF7BBFFC04648100020EB
:10479000000010504C7F0010608000107C7F0010E3
:1047A000CC7F0010F8B505000E001400FFF7A2FF43
:1047B0007F232B40EF0985707A427A4142700022B4
:1047C000C27086838477012F0DD0DA0012498C469F
:1047D00062448260826800211160002B09D143602D
:1047E0000E4BC360F8BDDA000D498C46624482600E
:1047F000F0E7012F09D0013BDB000A4A94466344ED
:1048000043602100FFF796FFECE7013BDB00064A1F
:10481000944663444360F4E7840010500001105054
:10482000800010500C0010500800105010B50023EC
:1048300008E00133DA000021084811508446624440
:104840005160DBB20E2BF4D9F02292000021044813
:10485000FFF72AFC034B044A1A6010BD00001050F9
:10486000840C00204810002080011050F0B5CE4686
:10487000474680B583B01D4B9F6D0024012603E0A1
:10488000B74376000134E4B2002F29D01F2C27D87B
:104890003E42F6D0164B9E6563089946012363405D
:1048A00001221A4090464B465D0045446D01114B74
:1048B000ED18280000F0ACFA0028E1D04B465B0070
:1048C00043445B010B4AD3189A8A997801230093D9
:1048D0000023002000F00AFE280000F009FACFE7CC
:1048E00003B0C0BCB946B046F0BDC0460000115090
:1048F00000301150440C002070B52B4A9823D45836
:1049000080235B0225001D401C420AD1E30616D419
:10491000E30419D4630429D4230433D4A5423ED13B
:1049200070BDFFF7F3FE01222049002000F0C4FD16
:104930001F4B802292021A6580256D02E6E7102344
:104940001D43FFF793FFE3E780235B011D43164BF5
:1049500000221A60FFF76AFF01220021002000F008
:1049600096FD134B802212031A65D3E78023DB01E7
:104970001D4301220421002000F076FD0C4B102283
:104980001A65C9E780231B021D430122052100206F
:1049900000F06AFD064B802212011A65BEE729006D
:1049A00061400448FCF746FF000011500000105021
:1049B000003011500080001070B50C001500FFF79A
:1049C00099FE2A00210000F0FFF970BD10B5002803
:1049D00004D101210520FDF7BBF810BDB921034B1F
:1049E000034A49000348FCF78BFEC04614800010C0
:1049F000508000107C7F001010B5002805D10022E7
:104A000000218020FFF7D8FF10BDBF21024B034AD1
:104A100049000348FCF774FE148000104080001029
:104A20007C7F0010024B80225202DA647047C0463D
:104A30000020115070B5041E25D100F033F9154D3A
:104A40000C23AB6714490520FDF79AF8402200219A
:104A50001248FFF729FB002240210020FFF7A2FEA9
:104A6000002240218020FFF79DFEFFF7DFFE01239B
:104A70002B6480239B05EB649023094AEA502000B5
:104A8000FFF7D0FF70BD4E21064B074AFF310748A4
:104A9000FCF736FE00001150F9480010440C0020CD
:104AA00010D0010014800010748000107C7F001072
:104AB0000B785B0602D14B78052B00D070478A78C3
:104AC000014B1A60FAE7C0460000115010B50C0007
:104AD00000280DD10A794B790721194009021143A9
:104AE000E2789207920FA078FFF75CFE012010BDDC
:104AF000D621034B034A49000348FCF701FEC04698
:104B000014800010308000107C7F001010B5FFF77B
:104B10008DFE10BD10B50400080011001A00002C15
:104B200003D1FFF749FF012010BDBC21024B034A0E
:104B3000FF310348FCF7E4FD1480001020800010D2
:104B40007C7F001010B508004B0605D1CB09012B66
:104B50000AD00222054B9A66FFF7CCFD8022120193
:104B6000002100F0CBF810BD0122F3E70020115026
:104B700010B508004B0600D110BDFFF7BBFD0023A8
:104B8000C3700022014900F0B9F8F5E7FFF7FFFF15
:104B9000F8B504000F00438A828B1E1C934200D993
:104BA000161CB6B29B1B63828025ED003543E3786B
:104BB000002B13D080229201154301225340E37051
:104BC0006378002B0CD0638A002B02D18023DB0199
:104BD0001D43002F00D02D042800F8BD0022EBE774
:104BE000B801E3689C4660443200A169FFF762FAAD
:104BF000A3699C466644A66180231B021D43E2E72D
:104C000070B5040083681B68002900D01B0C9D054B
:104C1000AD0D6278002A11D11B0409D4A38A5B1957
:104C2000A382A38BAB4201D900236382280070BD0D
:104C30000E4B0F4AD7210F48FCF762FD1B040ED51F
:104C40008901E3689C4661442A00A069FFF732FAB3
:104C5000A38A5B19A382A3695B19A361E1E7064BF1
:104C6000034ADE210348FCF74BFDC046808000105C
:104C70009C810010A0800010F080001010B504008E
:104C800083681B680021FFF7BBFF63681B685B003C
:104C900002D5A38B834200D010BD01212000FFF775
:104CA000AFFFF9E710B580235B040C4A13600C4A90
:104CB00013600C4B9A6880235B049343F9D10A4C30
:104CC0009C2200212000FFF7EFF9802252010021F1
:104CD0000648FFF7E9F90923636710BD00E00040CB
:104CE00000F0004000C000400000115000001050D3
:104CF00000230374438283828361704710B50029C7
:104D000002D083681B681940002A0FD01143530555
:104D10000CD5826813685B050BD40B4B0B401360FA
:104D2000FFE7FFE7FFE7FFE7FFE7FFE783681960BB
:104D300010BD83787F211940DB099B00034A9A58F4
:104D40000348FCF777FDC046FFFBFFFFD4040020BB
:104D50001081001070B5040043681E680021FFF741
:104D600017FF80256D010543144B1B6C9B0704D472
:104D7000A378DB0914D1013300E00023628A002A02
:104D800001D0002B0ED00E4B1E4080239B053343D9
:104D9000626813602A0000212000FFF7AFFF70BD9A
:104DA0000023EBE701212000FFF7F2FE0543054B4E
:104DB0001E40A023DB053343EAE7C0460000115044
:104DC000FFFFFFAFFFFFFFDF70B504000D0016000F
:104DD000037C002B09D166820023A3820133237454
:104DE000A5612000FFF7B6FF70BD83787F211940D1
:104DF000DB099B00044A9A580448FFF79FFA2000F9
:104E0000FFF776FFE7E7C046D404002030810010AA
:104E100070B50400057C002D06D0FFF72FFF638AD4
:104E2000002B08D1280070BD81787F231940044AE7
:104E30000448FCF7FFFC2000FFF78CFF0025F1E79A
:104E4000D40400206881001070B5050000240EE035
:104E500063001B19DA00184B1B689B1802E0230043
:104E600010E000235B68280098470134E4B2134B3C
:104E70001B78A3420ED3124A002AF0D0A342E7D8EF
:104E8000E31ADBB2002BECD15A00D218D2000D4B42
:104E90009B18E7E70C4C532200212000FFF704F990
:104EA000E01C1022FF21FFF7FFF820001330202222
:104EB000FF21FFF7F9F870BD44060020951200208D
:104EC00019440010E48200107C09002010B5FFF79F
:104ED000BBFF01F02BF810BD70B505000C001600EB
:104EE000C86801F02DF8E3683200002128009847D7
:104EF00070BD0000F0B5DE4657464E464546E0B56B
:104F000083B081460139C8B2FFF7BAFB002803D04D
:104F100043789846022B0CD0564A57495748FFF71A
:104F20000DFA002003B0F0BCBB46B246A946A0462D
:104F3000F0BDC5796A11012351491A4014010A785C
:104F40001026B24322430A70AD112B405B01D2B24E
:104F50002024A24313430B70070009378178C378DC
:104F60001B020B4382469A4463E0FB789B463B78E6
:104F7000FF1865E0434A40494048FFF7DFF9002049
:104F8000D0E766003619F3003F4A1668F61802E0CB
:104F9000230017E000262A0039004846B3689847E6
:104FA0000190082801D9854214D20134E4B2374B6C
:104FB0001B78A34239D3364A002AE9D0A342E0D86D
:104FC000E31ADBB2002BE5D15E00F318DB00314EB3
:104FD000F618E0E75B46012B10D0002293451AD962
:104FE000BB789B18DBB22649C918C978FF290BD1B9
:104FF0002349CB18DC700132D2B2EFE7B268264BFE
:105000009A42EAD1C346E8E7244A1B491B48FFF706
:1050100095F9002086E71A482300019D2A003900EF
:10502000133001F0BBFBAC466744184B1B78A3421E
:105030000ED3574514D27B780B2B96D001239B4679
:105040007B78042B96D15346DD1BADB20024AEE72E
:10505000F322920008490948FFF770F9002061E740
:105060000F4B002B03D000E000BF01205AE70120C6
:1050700058E7C0467B030000AC820010AC810010F2
:105080007C090020960300004406002095120020B1
:1050900019440010E482001051630010BD030000A9
:1050A0000000000070B505000C00CB7888780F2B4D
:1050B00054D89A002F498A589746FFF7DDFA020024
:1050C00012232100280000F0DDFE48E02A4B002BCF
:1050D00046D000E000BF02008178C3781B020B437A
:1050E0002100280000F0CEFE39E0022B10D0234B27
:1050F000002B37D000E000BF0200002A0CD09178CE
:10510000D3781B020B432100280000F0BBFE26E0F1
:10511000FFF7B6FA0200F0E7194A1A491A48FFF7F2
:105120000DF900201BE02379617909021943FFF78B
:10513000ABFA021E18D003782100280000F0A2FE6E
:105140000DE0124B002B11D000E000BF021E0FD06B
:1051500003782100280000F095FE00E0002070BDDB
:105160000020FCE70020FAE70020F8E70020F6E73F
:105170000020F4E7C48100100000000000000000DF
:105180001404000094820010AC81001000000000A4
:10519000024B5878431E9841C0B270477C090020EA
:1051A000024B18784007C00F7047C0467C090020AA
:1051B000014B18787047C0469612002070B5050064
:1051C000274B1878002800D070BD532200212548B5
:1051D000FEF76AFF244C2000FCF74CF8234B1C60C0
:1051E000234C20001C30FCF76BF8200001F0F0FD90
:1051F000204B1C60204B002B04D02048FFF70CF9FB
:105200001F4B186000240DE063001B19DA001C4BD3
:105210001B689B1802E023000FE000231B689847DF
:105220000134E4B2154B1B78A3420ED3124A002A74
:10523000F1D0A342E8D8E31ADBB2002BEDD15A003B
:10524000D218D2000F4B9B18E8E72800FFF7F2FBBB
:105250002800FFF7BBFB024B01221A700120B3E7C5
:10526000961200207C09002034090020D00900207B
:10527000DC040020D40900201944001095120020FD
:1052800044060020E482001030B585B00400437865
:10529000042B00D196E038D8022B62D0032B00D02B
:1052A000B9E06D4B1B785B0700D483E06A4A137842
:1052B00004218B4313700C22002101A8FEF7F4FE99
:1052C00023786A46137105235371644B1C68E269A5
:1052D000EFF3108172B61368002BFCD0BFF35F8F21
:1052E000216201A9200001F038FDE269236ABFF3C1
:1052F0005F8F0021116083F3108800285AD1A82203
:1053000057495848FFF71AF854E0052B00D082E0BF
:10531000514B1B78DB074DD54F4A137804218B4343
:1053200013704E4B1D68EA69EFF3108172B6136873
:10533000002BFCD0BFF35F8F29622100280001F011
:105340000CFDEA692B6ABFF35F8F0021116083F3C4
:10535000108800282ED1A82241494248FEF7EEFFCE
:1053600028E03D4B1A7801218A431A701A780131DE
:105370008A431A7000225A701A7802318A431A70CE
:10538000364B1D68EA69EFF3108172B61368002B83
:10539000FCD0BFF35F8F29622100280001F0DDFC03
:1053A000EA692B6ABFF35F8F0021116083F31088D5
:1053B000002801D005B030BDA82229492948FEF7B0
:1053C000BDFFF7E7244B1B78DB07F3D5224A1378A0
:1053D00004210B431370214B1D68EA69EFF3108120
:1053E00072B61368002BFCD0BFF35F8F29622100D7
:1053F000280001F0B2FCEA692B6ABFF35F8F00213D
:10540000116083F310880028D4D1A82214491548CC
:10541000FEF794FFCEE7114B1D68EA69EFF31081A8
:1054200072B61368002BFCD0BFF35F8F2962210096
:10543000280001F092FCEA692B6ABFF35F8F00211C
:10544000116083F310880028B4D1A82204490548CC
:10545000FEF774FFAEE7C0467C090020D4090020A7
:1054600084820010AC81001070B584B006000D007D
:1054700014000C22002101A8FEF716FE6B461E71D7
:105480005D71210001A8FFF7FFFE04B070BDF0B50B
:1054900085B007000E00150001AC0C220021200091
:1054A000FEF702FE27700123637026712900200099
:1054B000FFF7EAFE05B0F0BD70B584B006000D0040
:1054C00014000C22002101A8FEF7EEFD6B461E71B0
:1054D00006236A4653710822290002A8FEF7EAFD56
:1054E000210001A8FFF7D0FE04B070BDF0B5CE4694
:1054F000474680B585B080460F0016001D000CABF6
:105500001B78994601AC0C2200212000FEF7CCFD4F
:1055100043462370072363702771039665714946DC
:105520002000FFF7B1FE05B0C0BCB946B046F0BDE3
:1055300070B506000D008B7870221A420DD10D4B0C
:105540009978280001F0D6F8041E0DD0290030000B
:10555000FFF7BCFA0400200070BD074A074908485D
:10556000FEF7ECFE0024F6E7064A04490448FEF77D
:10557000E5FEF0E77C090020C20400006082001014
:10558000AC810010C3040000F0B5D6464F46464635
:10559000C0B581460C0017009846089B9A46002526
:1055A00016E0184A18491948FEF7C8FE00263000D0
:1055B000E0BCBA46B146A846F0BD154A12491348A8
:1055C000FEF7BCFEF3E7099A13702378E41801355F
:1055D000AF4214DD6378052BE3D1E1788907890FA9
:1055E0004145DED121004846FFF7A2FF061EE4D068
:1055F000A378DA09012AE6D052461370E5E70126BE
:10560000D5E7C0469C04000070820010AC810010F9
:105610009D04000070B57F250D40CC096A001E4B2B
:105620009B181B193033DB78DB07DE0F002B30D1E2
:10563000194B9B181B193033DB785B072AD4174BA7
:1056400018680121494201F0BBFC6A00124B9B180B
:105650001B193033DB78DB0708D40F4B9B181B1961
:105660003033DB785B0712D5002600E00026002EE1
:1056700008D06D0008494D192C193034E378042204
:105680001343E370054B186801F07AFC02E0012631
:10569000EDE70026300070BD7C090020D009002015
:1056A00070B57F250D40CC09154B18680121494282
:1056B00001F086FC6A00134B9B181B193033DB7812
:1056C000DB0708D40F4B9B181B193033DB785B07C3
:1056D00013D4002600E00026002E08D06900094DF2
:1056E0006D182C193034E37804229343E370044B93
:1056F000186801F045FC300070BD0126ECE7C0469B
:10570000D00900207C090020F0B5C64600B582B063
:1057100001937F250D40CE096F00174CE419A419A1
:105720003034E478E4071DD46F00134CE419A41955
:105730003034E3780127BC4667463B43E370019B66
:10574000FFF7E8F9002813D16D000B4B5D19AE1976
:105750003036F37801229343F370F37803329343A6
:10576000F37005E0054A06490648FEF7E7FD00200C
:1057700002B080BCB846F0BD7C0900200A050000DC
:1057800050820010AC81001070B57F240C40CD0910
:1057900062000C4B9B185B193033DB789B0700D5FC
:1057A00070BDFFF7CFF96300064CE418641930347C
:1057B000E37802221343E370E37801221343E3709A
:1057C000EEE7C0467C09002070B57F240C40CD096F
:1057D00062000C4B9B185B193033DB789B0700D4BD
:1057E00070BDFFF7C5F96300064CE4186419303446
:1057F000E37802229343E370E378013A9343E37042
:10580000EEE7C0467C0900207F220A40CB09520007
:1058100003498918C9183031C8788007C00F70470C
:105820007C090020F0B5C64600B582B005000C002A
:10583000002000F085FB237860221340602B12D0FB
:10584000402B17D02278D206D20E012A00D1D9E0FF
:10585000022A00D120E1002A1AD00026300002B02E
:1058600080BCB846F0BDCC4ACC49CD48FEF766FDB9
:105870000026F3E7CB4B002B00D181E1180000F0AC
:105880005FFB22000021280000E000BF0600E5E7E2
:10589000202B0AD0002B00D07AE16378092B00D9A5
:1058A00078E19B00C04AD3589F4623790F2B00D93B
:1058B00068E1BE4AD318DB78BD4A002A05D0BD4A4C
:1058C0001278934212D39B1ADBB2002B00D05BE11B
:1058D0005900CB18DB00B849C918002900D155E19F
:1058E00022002800FFF7F8FA0600B7E75900CB18A6
:1058F000DB00B24A1168C918EFE7200000F026FB70
:10590000A1782800FFF778F8A84A137802210B4302
:1059100013700126A2E7A54B5B786A460632137026
:1059200001232100280000F0ADFA012696E7A778B0
:105930009E4B5B78DBB2BB4205D09C4B5B78002B67
:1059400009D1002F13D1994B5F702100280000F07E
:105950007DFA012682E72800FFF7D8F8934EB37846
:1059600098462800FFF770FA4346B370E9E739001C
:105970002800FFF7BFFA061EE5D1914A87498848FB
:10598000FEF7DCFC6AE721002800FFF78BFB06002E
:1059900064E7A278E3781B021343012B01D00026B1
:1059A0005CE7824A137808210B431370210028001A
:1059B00000F04CFA012651E7A278E3781B0213436A
:1059C000012B01D0002649E7784A137808218B4340
:1059D00013702100280000F039FA01263EE7734BCE
:1059E0001A785109920801230B4002210A401343FF
:1059F0006A460632138002232100280000F042FA92
:105A000001262BE723790F2B00D9DDE0674AD31855
:105A1000D978674B002B05D0664B1B78994229D368
:105A2000C91AC9B2002900D0D0E04B005B18DB00D6
:105A30006149C918002900D1CAE022002800FFF7F7
:105A40004BFA061E00D009E7237860221A4200D0E4
:105A500004E763780A3B012B00D9FFE6002000F041
:105A60006FFA63780A2B0CD02100280000F0EEF9C1
:105A70000126F3E64B005B18DB00504A1168C91899
:105A8000D8E76B469A1D00231370013321002800CC
:105A900000F0F8F90136E1E621797F220A40CE09CB
:105AA0007020084220D15200404882189219D27CBE
:105AB0003F48002805D03F48007882421BD3121A85
:105AC000D2B2002A1ED15600B218D2003A4EB618F1
:105AD000002B19D0002E00D17CE0220031002800DC
